:020000040800F2
:10000000080400209D010008A5010008A7010008C0
:10001000A9010008AB010008AD01000800000000C4
:10002000000000000000000000000000AF01000818
:10003000B101000800000000B3010008A90E00088B
:10004000B7010008B7010008B7010008B7010008B0
:10005000B7010008B7010008B7010008B7010008A0
:10006000B7010008B7010008B7010008B701000890
:10007000B7010008B7010008B7010008B701000880
:10008000B7010008B7010008B7010008B701000870
:10009000B7010008B7010008B7010008B701000860
:1000A000B7010008B7010008B7010008B701000850
:1000B000B7010008B7010008B7010008B701000840
:1000C000B7010008B7010008B7010008B701000830
:1000D000B7010008B7010008B7010008B701000820
:1000E000B7010008B7010008B7010008B701000810
:1000F000B7010008B7010008B7010008B701000800
:10010000B7010008B7010008B7010008B7010008EF
:10011000B7010008B7010008B7010008B7010008DF
:10012000B7010008B7010008B7010008B7010008CF
:10013000B7010008B7010008B7010008B7010008BF
:10014000B7010008B7010008B7010008B7010008AF
:10015000B7010008B7010008B7010008B70100089F
:10016000B7010008B7010008B7010008B70100088F
:10017000B7010008B7010008B7010008000000003F
:10018000B7010008B7010008DFF80CD000F018F83C
:1001900000480047C50F00080804002006488047B3
:1001A00006480047FEE7FEE7FEE7FEE7FEE7FEE75C
:1001B000FEE7FEE7FEE7FEE74D0F000889010008B5
:1001C000064C074D06E0E06840F0010394E80700A4
:1001D00098471034AC42F6D3FFF7DAFFF80F000867
:1001E0001810000831B500F013F9044600F010F9BA
:1001F0000099001B8842F9D338BD00002DE9F84F63
:100200000022DFF8F891DFF8F0814FF0010E0F27A0
:1002100009F1040A0EFA02F50B682B40AB427CD1BF
:10022000D1F804C0BCF1020F02D0BCF1120F14D1FE
:100230004FEAD20C00EB8C04266A4FEA427C4FEA6C
:10024000DC6C07FA0CFB26EA0B06D1F810B00BFAAF
:100250000CFC4CEA060CC4F820C006684FEA420CBD
:10026000032404FA0CF4A64391F804B00BF0030B3A
:100270000BFA0CFB4BEA060606604E68012E05D011
:10028000022E03D0112E01D0122E11D18668A64362
:10029000D1F80CB00BFA0CFB4BEA060686604668F8
:1002A00026EA05050E79C6F30016964035434560EB
:1002B000C56825EA04048D6805FA0CFC4CEA040CB8
:1002C000C0F80CC0D1F804C01CF0805F72D0D8F820
:1002D00000C04CF4804CC8F800C0D8F800C00CF442
:1002E000804CCDF800C022F0030C0CF1804505F5E0
:1002F0009835D5F808C89407240F07FA04F62CEAB5
:100300000606A0F1804CBCF5003C59D0BCF5806CD1
:1003100059D0BCF5806C59D000E04BE0BCF5806C46
:1003200057D0BCF5806C57D0BCF5806C57D0BCF56D
:10033000806C57D0BCF5806C57D0BCF5806C57D022
:100340004FF0090C0CFA04FC4CEA060CC5F808C87E
:100350002B4CD4F800C02CEA030C4D6815F4803FF8
:1003600001D04CEA030CC4F800C0D9F800C02CEA54
:10037000030C4C6814F4003F01D04CEA030CC9F89C
:1003800000C0DAF800C02CEA030C4C6814F4801F9B
:1003900001D04CEA030CCAF800C01A4CD4F800C0D3
:1003A0002CEA030C4D6815F4001F01D04CEA030C35
:1003B000C4F800C0521C102AFFF42CAFBDE8F88F1F
:1003C0004FF0000CBEE74FF0010CBBE74FF0020C02
:1003D000B8E74FF0030CB5E74FF0040CB2E74FF06D
:1003E000050CAFE74FF0060CACE74FF0070CA9E7A0
:1003F0004FF0080CA6E7000044380240043C0140DE
:10040000003C01400C3C0140426951404161704751
:10041000014800687047000004000020024801689D
:10042000491C0160704700000400002010B50B4813
:10043000016841F400710160016841F4806101606C
:10044000016841F480710160032000F059F8002038
:1004500000F006F800F015F8002010BD003C024046
:1004600010B5044600F09EF94FF47A72B0FBF2F03A
:1004700000F020FC00222146501E00F00DF8002064
:1004800010BD10B5072000F03BF80022BDE8104079
:100490001146501EAFF3008010B4184B1B68C3F315
:1004A0000223C3F1070CBCF1040F01D94FF0040C77
:1004B0001C1D072C01D2002300E0DB1E012404FADE
:1004C0000CFCACF1010C0CEA0101994004FA03F3B5
:1004D0005B1E1A401143002808DA00F00F0000F1FB
:1004E000E020090180F8141D10BC704700F1E020E5
:1004F000090180F8001410BC704700000CED00E00A
:1005000000F00700064A11684FF6FF03194041EA60
:10051000002040F0FD7040F08060106070470000E7
:100520000CED00E02DE9F04704460E46DFF868A226
:10053000DAF80000994900F00F00994F06F0FF0922
:1005400041F28838B04270D28AF80090DAF80000A0
:1005500000F00F00B04202D00120BDE8F087207803
:1005600010F0020F05D03868A26820F0F0001043A8
:100570003860207810F0010F49D06068012808D059
:1005800002280DD003280BD0096811F0020F29D0E2
:100590000AE0096811F4003F06D10120BDE8F087A8
:1005A000096811F0007F1AD0396821F0030108436F
:1005B0003860FFF72DFF05466068012815D0022836
:1005C00026D003283BD0386810F00C0F1FD0FFF75F
:1005D0001FFF401B404539D90320BDE8F0870120AB
:1005E000BDE8F0870120BDE8F087386800F00C0016
:1005F00004280CD0FFF70CFF401B404502D9032014
:10060000BDE8F087386800F00C000428F2D1A8E0BB
:10061000386800F00C00082870D0FFF7F9FE401B86
:10062000404503D90320BDE8F08714E0386800F0A6
:100630000C000828F1D194E00320BDE8F087386869
:10064000FFF7E6FE401B4045F9D9F5E7386810F0A2
:100650000C0FBCD185E0207810F0020F05D038686F
:10066000A26820F0F00010433860207810F0010FED
:100670006CD06068012808D002280DD003280BD068
:10068000096811F0020F29D00AE0096811F4003F4F
:1006900006D10120BDE8F087096811F0007F1AD06B
:1006A000396821F0030108433860FFF7B1FE0546C1
:1006B0006068012815D0022827D003283BD038686D
:1006C00010F00C0F42D0FFF7A3FE401B404539D974
:1006D0000320BDE8F0870120BDE8F0870120BDE8D8
:1006E000F087386800F00C0004282FD0FFF790FE48
:1006F000401B404503D90320BDE8F08731E038684E
:1007000000F00C000428F1D120E0386800F00C0063
:1007100008281BD0FFF77CFE401B404502D9032070
:10072000BDE8F087386800F00C000828F2D10DE031
:100730000320BDE8F0873868FFF76AFE401B40459C
:10074000F9D9F5E7386810F00C0FBCD18AF80090A1
:10075000DAF8000000F00F00B04202D00120BDE83E
:10076000F087207810F0040F05D03868E16820F495
:10077000E05008433860207810F0080F06D0386841
:10078000216920F4604040EAC10038600020FFF792
:1007900067FE0020BDE8F087003C024000380240C0
:1007A0000838024010B500F017F808490968F0222F
:1007B00092FAA2F201F0F001B2FA82F2D140044AB8
:1007C000515CC8400349086010BD00000838024071
:1007D000E80F00080000002010B41F48006810F067
:1007E0000C011E481BD04FEA600C042916D00829C2
:1007F00015D11B4A116801F03F01136813F4800FF3
:1008000047F6C0730DD0BCFBF1F01168194093FAA4
:10081000A3F3B3FA83F3D94048430CE0604610BC1D
:100820007047B0FBF1F01168194093FAA3F3B3FAE3
:1008300083F3D940484311684FF4403292FAA2F250
:1008400001F44031B2FA82F2D140491C4900B0FBB8
:10085000F1F010BC70470000083802400024F4009A
:10086000043802402DE9F84F0446DFF8E8B3207859
:10087000F94D10F0010F4FF0000741F2883660D0BB
:10088000DBF8000000F00C0004280AD0DBF80000C0
:1008900000F00C0008280DD1281D006810F4800F0E
:1008A00008D0286810F4003F4BD0606878BB012066
:1008B000BDE8F88FDFF8A49389F80070FFF7A8FD72
:1008C0008046286810F4003F0CD0FFF7A1FDA0EB94
:1008D0000800B04202D90320BDE8F88F286810F460
:1008E000003FF2D1207989F800006068A8B1FFF7D5
:1008F0008FFD8046286810F4003F22D1FFF788FD65
:10090000A0EB0800B04203D90320BDE8F88F18E03F
:10091000286810F4003FF1D013E0FFF779FD80461E
:10092000286810F4003F0CD0FFF772FDA0EB080020
:10093000B04202D90320BDE8F88F286810F4003FC8
:10094000F2D12078DFF8188310F0020F64D0DBF8C2
:1009500000004FF0F80A10F00C0F17D0DBF8000081
:1009600000F00C00082804D1BE48006810F4800F85
:100970000CD0E068C8B30120C8F80000FFF748FDBC
:100980008146286810F0020F16D022E0286810F087
:10099000020F05D0E068012802D00120BDE8F88FE1
:1009A00028689AFAAAF22169B2FA82F220F0F800D5
:1009B0009140084328602FE0FFF72AFDA0EB0900D3
:1009C000642802D90320BDE8F88F286810F0020FD0
:1009D000F2D028689AFAAAF22169B2FA82F220F0DB
:1009E000F80091400843286016E0FFE7C8F800705F
:1009F000FFF70EFD8146286810F0020F0CD0FFF7BC
:100A000007FDA0EB0900642802D90320BDE8F88F98
:100A1000286810F0020FF2D1207810F0080F34D0BF
:100A20009148DFF848A26169C1B101210160FFF777
:100A3000EFFC8146DAF8000010F0020F25D1FFF735
:100A4000E7FCA0EB0900642802D90320BDE8F88F79
:100A5000DAF8000010F0020FF1D016E00760FFF79F
:100A6000D7FC8146DAF8000010F0020F0DD0FFF736
:100A7000CFFCA0EB0900642802D90320BDE8F88F61
:100A8000DAF8000010F0020FF1D1207810F0040F16
:100A900072D07748016841F080510160006800F031
:100AA00080500090DFF8CCA1DAF8000040F48070AC
:100AB000CAF80000FFF7ACFC8146DAF8000010F439
:100AC000807F0DD1FFF7A4FCA0EB0900642802D9B8
:100AD0000320BDE8F88FDAF8000010F4807FF1D031
:100AE000DFF894A18AF80070FFF792FC8146DAF8EB
:100AF000000010F0020F0DD0FFF78AFCA0EB0900F8
:100B0000B04202D90320BDE8F88FDAF8000010F0F7
:100B1000020FF1D1207A8AF80000A068B0B1FFF787
:100B200077FC8146DAF8000010F0020F24D1FFF7BD
:100B30006FFCA0EB0900B04202D90320BDE8F88F9A
:100B4000DAF8000010F0020FF1D015E0FFF760FCBA
:100B50008146DAF8000010F0020F0DD0FFF758FCC4
:100B6000A0EB0900B04202D90320BDE8F88FDAF803
:100B7000000010F0020FF1D1A069E8B3DBF800101B
:100B800001F00C01082979D0022810D0C8F8607053
:100B9000FFF73EFC0446286810F0007F74D0FFF792
:100BA00037FC001B64286BD90320BDE8F88FC8F818
:100BB0006070FFF72DFC0646286810F0007F0BD010
:100BC000FFF726FC801B642802D90320BDE8F88FBC
:100BD000286810F0007FF3D1216AE069626A01435E
:100BE00047F6C07090FAA0F0B0FA80F002FA00F078
:100BF0004FF0FF33A26A00E046E003EB52024FF4ED
:100C0000403393FAA3F3B3FA83F39A4010430843B3
:100C10004FF0706292FAA2F2E16AB2FA82F2914067
:100C20000143104801600120C8F86000FFF7F0FBA5
:100C30000446286810F0007F26D1FFF7E9FB001B6F
:100C4000642802D90320BDE8F88F286810F0007FDF
:100C5000F3D019E008380240003802400238024060
:100C60000000474204380240800E47427438024078
:100C700040380240007000407038024007E0FFE753
:100C8000286810F0007F8AD10020BDE8F88F01208D
:100C9000BDE8F88F4FF0E021042804D0086920F067
:100CA000040008617047086940F00400086170475B
:100CB00070470000401EB0F1807F01D301207047D3
:100CC0004FF0E0214861044AF02010700020886154
:100CD000072008610020704723ED00E010B5FFF702
:100CE000E7FF10BD2DE9F04F87B06848016841F07B
:100CF00010010160016801F010010191016841F0EB
:100D000004010160016801F004010191016841F0F2
:100D100080010160016801F080010191016841F0EA
:100D200001010160016801F001010191016841F0D8
:100D300002010160016801F002010191016841F0C6
:100D400008010160006800F0080001900825029584
:100D50000126039600240494059402A94C48FFF749
:100D60004DFA029603960494059402A94948FFF7A8
:100D700045FA0295022503950494059405270697E4
:100D800002A94448FFF73AFA0296DFF80C81CDF841
:100D90000C80049402A94148FFF730FA1020029019
:100DA0000395049405944FF00609CDF8189002A914
:100DB0003A48FFF723FAE020029003950494059443
:100DC000069702A93548FFF719FA4FF0040ACDF843
:100DD00008A003940494DFF8C8B002A95846FFF7AE
:100DE0000DFA68020290039504940594069702A9EF
:100DF0005846FFF703FA4FF210000290039604944E
:100E00000594284F02A93846FFF7F8F94FF4A4508B
:100E10000290039504940594CDF8189002A91D48FA
:100E2000FFF7ECF9280202900394049402A91B48EE
:100E3000FFF7E4F94FF4E050029003950494059411
:100E40000A20069002A91548FFF7D8F92020029041
:100E50000394049402A93846FFF7D0F94FF41070B8
:100E600002901220039004960594CDF818A002A9D0
:100E70005846FFF7C3F90295CDF80C80049402A9F7
:100E80000348FFF7BBF907B0BDE8F08F30380240E8
:100E90000010024000080240000012100000024052
:100EA00000040240000C024010B5FFF7B7FABDE89D
:100EB0001040FFF713BF000010B592B02148016841
:100EC00041F080510160006800F0805000901E48A1
:100ED000016841F480410160006800F480400090A6
:100EE00001200690079002240C9480050D900820A4
:100EF0000E904FF4A8700F9010940720119006A840
:100F0000FFF7B0FC0D2001900294002003904FF4F5
:100F1000A0500490E0020590052101A8FFF702FB14
:100F2000FFF740FC4FF47A71B0FBF1F0FFF7C2FE1F
:100F30000420FFF7AFFE00221146501EFFF7ACFA67
:100F400012B010BD40380240007000400F480168E8
:100F500041F4700101600E48016841F00101016037
:100F60000C4A00211160026822F4102222F08072E3
:100F70000260031D084A1A60026822F4802202609F
:100F800006480160064958060860704788ED00E091
:100F90000038024008380240103000240C3802406B
:100FA00008ED00E002E008C8121F08C1002AFAD1CB
:100FB00070477047002001E001C1121F002AFBD1D9
:100FC00070470000FFF732FAFFF776FFFFF78AFE5F
:100FD000044C4FF480512046FFF716FA6420FFF7C7
:100FE00001F9F6E7000C02400000000001020304D2
:100FF0000102030406070809181000080000002079
:1010000008000000A40F00082010000808000020BD
:1010100000040000B40F00080024F40000000000E9
:040000050800018965
:00000001FF
